:100000007CC0EAC195C094C093C092C091C090C01A
:100010008FC08EC08DC08CC08BC08AC089C088C084
:1000200087C086C085C089C47DC47CC488C4A0C480
:1000300079C478C477C476C484C485C486C487C4AC
:1000400088C470C48DC48EC48FC490C491C498C435
:1000500099C49AC4090222000101008032090400F7
:10006000000103000000092101010001223E0007F8
:1000700005810308000A1201100100000008C016E3
:10008000DB2700010102000120034D0075006C0018
:10009000740069006D006500640069006100200063
:1000A000620074006E00730010034E006100730064
:1000B0007300610074006F0004030904050C09015A
:1000C000A101850119002A3C021500263C02950178
:1000D00075108100C005010906A1018502050719F7
:1000E000E029E71500250175019508810295017544
:1000F000082565190029658100C011241FBECFE5C0
:10010000D4E0DEBFCDBF10E0A0E6B0E0E6EBF9E062
:1001100002C005900D92A039B107D9F720E0A0E9FF
:10012000B0E001C01D92A23DB207E1F70FD341C478
:1001300067CFCF93C62F2091A70024FF07C030912F
:10014000A80028E823272093A80003C02AE52093CD
:10015000A7002C2FFC01A9EAB0E081918D932150DA
:100160001216DCF36C2F89EA90E032D1CC5FC09399
:10017000A700CF910895CF93DF938091B80083506B
:1001800087FDA8C09091B4009D3209F0A1C08830CD
:1001900009F09EC08091B500CCE0D0E0C81BD10929
:1001A000C454DF4F83EC80939C008AE58093610008
:1001B000109290008881807619F0CE0145D27FC0E0
:1001C0009A811092A5008981811106C01092A60023
:1001D00025EA30E082E06FC0853019F49093B900D1
:1001E00067C0863009F04EC08B81813041F486E7CC
:1001F00090E09093B7008093B60082E13FC08230D8
:1002000041F484E590E09093B7008093B60082E2D9
:1002100035C08330F1F4911108C088EB90E09093E1
:10022000B7008093B60084E029C0913041F488EA99
:1002300090E09093B7008093B60080E11FC09230A9
:10024000E1F488E890E09093B7008093B60080E2F4
:1002500015C0813241F486E690E09093B700809318
:10026000B60089E00BC0823241F48CEB90E09093B1
:10027000B7008093B6008EE301C080E090E49093D5
:1002800090001DC0883069F0893019F49093BB004C
:100290000FC08A3049F08B3059F48BE48093A8006A
:1002A00007C02BEB30E002C025EA30E081E003C05C
:1002B00025EA30E080E03093B7002093B6009F81BC
:1002C000911104C09E81981708F4892F80936000D3
:1002D0001092B8008091610084FF4BC08091600053
:1002E0008F3F09F446C0C82F893008F0C8E08C1B46
:1002F0008093600090919C0088E8892780939C00FF
:10030000CC2359F18091B6009091B70020919000D4
:1003100026FF12C0ACE9B0E02C2FAC014C59504084
:10032000FA01EA0FFB1FE4911196EC93119721500B
:1003300011962111F5CF08C0EDE9F0E0DC012C2F7A
:100340003D9131932150E1F701962FEF2C0F820F51
:10035000911D9093B7008093B6006C2F8DE990E0CB
:1003600037D0CC5FCC3019F08FEF80936000C09312
:10037000610084E190B3957031F48150D9F7109207
:10038000B9001092B300DF91CF91089585B78260D4
:1003900085BF8BB780648BBFE7EAF0E08BE4818395
:1003A0008AE580830895A82FB92F80E090E041E08E
:1003B00050EA609530E009C02D9182279795879586
:1003C00010F084279527305EC8F36F5FA8F3089577
:1003D000EADF8D939D930895CF93CFB7CF93DF93AB
:1003E000C395809BE9F7809B0BC0809B09C0809BD5
:1003F00007C0809B05C0809B03C0809B01C08BC051
:100400006F93C091B500DD27C454DF4F2F9365E58E
:10041000809B03C02F916F91E6CF0F931F934F9353
:1004200020E040E15F9300B3057000FB27F93F93A4
:1004300050E03BE039C0157040642F77012F5F5FBB
:100440001EC0406810B315702F7752501FC0406413
:1004500000B32F770570D1F15F5F00C023C0406209
:1004600010B32F77157091F15F5F00C025C0057044
:100470001027515012F45D5F0000115027952C3F5A
:1004800010B3C8F615700127015027952C3FC8F608
:100490004227499300B3057010274F7311502795D9
:1004A0002C3FA8F64695469510B3157079F00127B4
:1004B000015027952C3F98F66B5A60F3315000B3EA
:1004C000B0F600C010E41ABF002719C03B503195A8
:1004D000C31BD04010E41ABF0881033C09F10B3460
:1004E000F9F02091B3001981110F1213EDCF4A8159
:1004F000441F093651F10D3211F0013E29F70093E6
:10050000BA003F915F914F911F910F912F916F9181
:10051000CAB7C6FD65CFDF91CF91CFBFCF911895F8
:100520002091BA00222369F31091B800112391F5AC
:10053000343092F13093B8002093B4001091B5009C
:100540003BE0311B3093B50027C00091B80001306B
:100550000CF50AE54F7049F43091610034FD1DC07F
:1005600000936100CCE9D0E01CC03091A70034FDBD
:1005700014C00093A700C8EAD0E013C0052710E01C
:1005800000C0000002BB1AC0052710E0221F1DC0DA
:1005900010E021C04AE502C032ED432FC4E1D0E0B3
:1005A00032E011B31560909A02B311BB55E020E818
:1005B00065E320FF052702BB279517951C3FF0F642
:1005C0006695B8F7B1F720FF052702BB2795179569
:1005D0001C3FD0F62795179517FF052700001C3FF5
:1005E00002BBB0F629913A9519F70A7F1091B9002C
:1005F000110FC651D04002BB11F01093B30010E4AC
:100600001ABF016011B31A7F402F4A7F54E05A95F8
:10061000F1F702BB11BB42BB74CF87B93E9A369A41
:100620003699FECF84B195B10895E2E9F0E092E009
:1006300090831092930082830895E5E9F0E091E0C1
:100640009083818312820895FC01808180768032BC
:1006500031F581818130A1F48281813029F480E0FB
:10066000ECDF85E990E006C08230C9F480E0DDDF90
:1006700082E990E09093B7008093B60083E00895FC
:10068000823041F481E990E09093B7008093B60006
:1006900081E008958A3019F483818093910080E08D
:1006A000089510929B001092980010929A00109258
:1006B0009900089586B386958170B0998260E09123
:1006C0009B00EF7094E0E99FF0011124EC58FF4F7C
:1006D000E80FF11D808180939B0090919A008073B8
:1006E000911101C021F08093990010929A0083B378
:1006F000817099998260E0919800EF7094E0E99F91
:10070000F0011124EC58FF4FE80FF11D8081809318
:10071000980090919A008073911101C029F08F5F29
:100720008093990010929A00089581E080939A0036
:10073000E0919900E051E23130F4F0E0EE59FF4FE2
:10074000808190E0089580E090E008959FE088E146
:100750000FB6F894A89581BD0FBE91BD8FEF88BBF1
:1007600017BA8FEC85BB14BA9CDF82E081BB85E0B1
:1007700083BF87E886B90ADE789400E010E0E12CB8
:10078000C0E0C12CD12CD0E0BB24B394A895F3DCFD
:1007900036B380E091E08F5F232F292309F447C00F
:1007A000990F8630C1F723B380E091E0322F3923CF
:1007B00011F4895F3CC0990F8F5F8430B9F72DDF4A
:1007C0004C0185E02ADF2AE08216910408F44CC02F
:1007D0009401295C31092737310508F4DEC0245023
:1007E00031402B38310508F445C02DEB821A22E048
:1007F000920A2DEB8216910408F4D9C08A30910533
:1008000008F4CDC09C01295C31092737310508F473
:10081000C8C0245031402B38310508F4C4C08D5B6A
:1008200092408D3B910508F4C0C080E01EC0D813F3
:1008300024C08FEE8D0F8230D0F48D2FD11005C0E3
:10084000093B9BE0190740F404C00D3B22E012076E
:1008500040F40F5F1F4F0CC000E010E0DD24D39484
:1008600010C000E010E00DC08FE0D81306C08D2F3F
:10087000F12C09C081E1D81701F3D82F00E010E076
:10088000D12CFF24F39408B600FE10C0B8BE90919E
:100890009100992359F08F3048F484E08C1518F4B6
:1008A0009BEFC90E03C0C92EFF24F39403DF809190
:1008B000A70084FF6BCF39DF8131910589F038F4CF
:1008C0000097B9F08031910509F44EC024C0803200
:1008D000910509F44BC081329105E9F48BE301C025
:1008E0008AE3A3DE63E082E990E023DCEE24E39474
:1008F0004DCFCC2331F080E0A0DE63E085E990E0CD
:100900002DC0EE2069F080E090DE63E082E990E0A7
:1009100010DCE12C3BCF892B09F038CFC1112EC060
:10092000F11002C0C0E032CF8D2F90E087319105E9
:10093000C8F7FC01ED5EFF4F099480E00BC082EE2A
:1009400018C08CE307C08DE305C08EE303C08FE3BE
:1009500001C080E46ADE63E082E990E0EADBE2CF96
:1009600085EB07C086EB05C089EE03C08AEE01C0A7
:100970008DEC63DE63E085E990E0DBDBC1E006CF70
:100980008DE303C08EE301C08FE34FDE63E082E9B5
:1009900090E0CFDBEE24E394C5CF80E166CF83E126
:1009A00064CF84E162CF85E160CF86E15ECF82E1F2
:0609B00062CFF894FFCFB6
:1009B600FF5A202100000000000000000000000097
:1009C60000001011000204000300011003020000E1
:1009D60003020100060004000605002006050400C7
:00000001FF
